{
  "_format": "hh-sol-artifact-1",
  "contractName": "RealEstate",
  "sourceName": "contracts/RealEstate.sol",
  "abi": [
    {
      "anonymous": false,
      "inputs": [
        {
          "indexed": true,
          "internalType": "uint256",
          "name": "id",
          "type": "uint256"
        },
        {
          "indexed": false,
          "internalType": "string",
          "name": "location",
          "type": "string"
        },
        {
          "indexed": false,
          "internalType": "uint256",
          "name": "price",
          "type": "uint256"
        }
      ],
      "name": "PropertyListed",
      "type": "event"
    },
    {
      "anonymous": false,
      "inputs": [
        {
          "indexed": true,
          "internalType": "uint256",
          "name": "id",
          "type": "uint256"
        },
        {
          "indexed": false,
          "internalType": "address",
          "name": "buyer",
          "type": "address"
        }
      ],
      "name": "PropertySold",
      "type": "event"
    },
    {
      "inputs": [
        {
          "internalType": "uint256",
          "name": "_id",
          "type": "uint256"
        }
      ],
      "name": "buyProperty",
      "outputs": [],
      "stateMutability": "payable",
      "type": "function"
    },
    {
      "inputs": [
        {
          "internalType": "uint256",
          "name": "_id",
          "type": "uint256"
        }
      ],
      "name": "getProperty",
      "outputs": [
        {
          "components": [
            {
              "internalType": "uint256",
              "name": "id",
              "type": "uint256"
            },
            {
              "internalType": "string",
              "name": "location",
              "type": "string"
            },
            {
              "internalType": "uint256",
              "name": "price",
              "type": "uint256"
            },
            {
              "internalType": "address",
              "name": "owner",
              "type": "address"
            },
            {
              "internalType": "bool",
              "name": "sold",
              "type": "bool"
            }
          ],
          "internalType": "struct RealEstate.Property",
          "name": "",
          "type": "tuple"
        }
      ],
      "stateMutability": "view",
      "type": "function"
    },
    {
      "inputs": [
        {
          "internalType": "string",
          "name": "_location",
          "type": "string"
        },
        {
          "internalType": "uint256",
          "name": "_price",
          "type": "uint256"
        }
      ],
      "name": "listProperty",
      "outputs": [],
      "stateMutability": "nonpayable",
      "type": "function"
    },
    {
      "inputs": [],
      "name": "nextPropertyId",
      "outputs": [
        {
          "internalType": "uint256",
          "name": "",
          "type": "uint256"
        }
      ],
      "stateMutability": "view",
      "type": "function"
    },
    {
      "inputs": [
        {
          "internalType": "uint256",
          "name": "",
          "type": "uint256"
        }
      ],
      "name": "properties",
      "outputs": [
        {
          "internalType": "uint256",
          "name": "id",
          "type": "uint256"
        },
        {
          "internalType": "string",
          "name": "location",
          "type": "string"
        },
        {
          "internalType": "uint256",
          "name": "price",
          "type": "uint256"
        },
        {
          "internalType": "address",
          "name": "owner",
          "type": "address"
        },
        {
          "internalType": "bool",
          "name": "sold",
          "type": "bool"
        }
      ],
      "stateMutability": "view",
      "type": "function"
    }
  ],
  "bytecode": "0x608060405234801561001057600080fd5b5061114f806100206000396000f3fe60806040526004361061004a5760003560e01c806332665ffb1461004f57806339500f341461008c5780636fa830a6146100b7578063de9476ad146100d3578063f7b10808146100fc575b600080fd5b34801561005b57600080fd5b506100766004803603810190610071919061078c565b61013d565b604051610083919061092a565b60405180910390f35b34801561009857600080fd5b506100a1610280565b6040516100ae919061095b565b60405180910390f35b6100d160048036038101906100cc919061078c565b610286565b005b3480156100df57600080fd5b506100fa60048036038101906100f59190610aab565b61048b565b005b34801561010857600080fd5b50610123600480360381019061011e919061078c565b610610565b604051610134959493929190610b6f565b60405180910390f35b6101456106fb565b6000808381526020019081526020016000206040518060a00160405290816000820154815260200160018201805461017c90610bf8565b80601f01602080910402602001604051908101604052809291908181526020018280546101a890610bf8565b80156101f55780601f106101ca576101008083540402835291602001916101f5565b820191906000526020600020905b8154815290600101906020018083116101d857829003601f168201915b50505050508152602001600282015481526020016003820160009054906101000a900473ffffffffffffffffffffffffffffffffffffffff1673ffffffffffffffffffffffffffffffffffffffff1673ffffffffffffffffffffffffffffffffffffffff1681526020016003820160149054906101000a900460ff1615151515815250509050919050565b60015481565b600080600083815260200190815260200160002090508060030160149054906101000a900460ff16156102ee576040517f08c379a00000000000000000000000000000000000000000000000000000000081526004016102e590610c75565b60405180910390fd5b80600201543414610334576040517f08c379a000000000000000000000000000000000000000000000000000000000815260040161032b90610ce1565b60405180910390fd5b600073ffffffffffffffffffffffffffffffffffffffff168160030160009054906101000a900473ffffffffffffffffffffffffffffffffffffffff1673ffffffffffffffffffffffffffffffffffffffff16036103c7576040517f08c379a00000000000000000000000000000000000000000000000000000000081526004016103be90610d4d565b60405180910390fd5b60018160030160146101000a81548160ff0219169083151502179055508060030160009054906101000a900473ffffffffffffffffffffffffffffffffffffffff1673ffffffffffffffffffffffffffffffffffffffff166108fc349081150290604051600060405180830381858888f1935050505015801561044e573d6000803e3d6000fd5b50817fb424abc5eb4b182f4334d7f8fa7c796e8d0b113fa9b68319cb6faefffbf0f18c3360405161047f9190610d6d565b60405180910390a25050565b600081116104ce576040517f08c379a00000000000000000000000000000000000000000000000000000000081526004016104c590610dd4565b60405180910390fd5b6040518060a0016040528060015481526020018381526020018281526020013373ffffffffffffffffffffffffffffffffffffffff1681526020016000151581525060008060015481526020019081526020016000206000820151816000015560208201518160010190816105439190610fa0565b506040820151816002015560608201518160030160006101000a81548173ffffffffffffffffffffffffffffffffffffffff021916908373ffffffffffffffffffffffffffffffffffffffff16021790555060808201518160030160146101000a81548160ff0219169083151502179055509050506001547fb906962cbf3f3ecd490633cbf2018014c57107262f8d80f40a11ca0e8b31f2aa83836040516105ec929190611072565b60405180910390a260016000815480929190610607906110d1565b91905055505050565b600060205280600052604060002060009150905080600001549080600101805461063990610bf8565b80601f016020809104026020016040519081016040528092919081815260200182805461066590610bf8565b80156106b25780601f10610687576101008083540402835291602001916106b2565b820191906000526020600020905b81548152906001019060200180831161069557829003601f168201915b5050505050908060020154908060030160009054906101000a900473ffffffffffffffffffffffffffffffffffffffff16908060030160149054906101000a900460ff16905085565b6040518060a00160405280600081526020016060815260200160008152602001600073ffffffffffffffffffffffffffffffffffffffff1681526020016000151581525090565b6000604051905090565b600080fd5b600080fd5b6000819050919050565b61076981610756565b811461077457600080fd5b50565b60008135905061078681610760565b92915050565b6000602082840312156107a2576107a161074c565b5b60006107b084828501610777565b91505092915050565b6107c281610756565b82525050565b600081519050919050565b600082825260208201905092915050565b60005b838110156108025780820151818401526020810190506107e7565b60008484015250505050565b6000601f19601f8301169050919050565b600061082a826107c8565b61083481856107d3565b93506108448185602086016107e4565b61084d8161080e565b840191505092915050565b600073ffffffffffffffffffffffffffffffffffffffff82169050919050565b600061088382610858565b9050919050565b61089381610878565b82525050565b60008115159050919050565b6108ae81610899565b82525050565b600060a0830160008301516108cc60008601826107b9565b50602083015184820360208601526108e4828261081f565b91505060408301516108f960408601826107b9565b50606083015161090c606086018261088a565b50608083015161091f60808601826108a5565b508091505092915050565b6000602082019050818103600083015261094481846108b4565b905092915050565b61095581610756565b82525050565b6000602082019050610970600083018461094c565b92915050565b600080fd5b600080fd5b7f4e487b7100000000000000000000000000000000000000000000000000000000600052604160045260246000fd5b6109b88261080e565b810181811067ffffffffffffffff821117156109d7576109d6610980565b5b80604052505050565b60006109ea610742565b90506109f682826109af565b919050565b600067ffffffffffffffff821115610a1657610a15610980565b5b610a1f8261080e565b9050602081019050919050565b82818337600083830152505050565b6000610a4e610a49846109fb565b6109e0565b905082815260208101848484011115610a6a57610a6961097b565b5b610a75848285610a2c565b509392505050565b600082601f830112610a9257610a91610976565b5b8135610aa2848260208601610a3b565b91505092915050565b60008060408385031215610ac257610ac161074c565b5b600083013567ffffffffffffffff811115610ae057610adf610751565b5b610aec85828601610a7d565b9250506020610afd85828601610777565b9150509250929050565b600082825260208201905092915050565b6000610b23826107c8565b610b2d8185610b07565b9350610b3d8185602086016107e4565b610b468161080e565b840191505092915050565b610b5a81610878565b82525050565b610b6981610899565b82525050565b600060a082019050610b84600083018861094c565b8181036020830152610b968187610b18565b9050610ba5604083018661094c565b610bb26060830185610b51565b610bbf6080830184610b60565b9695505050505050565b7f4e487b7100000000000000000000000000000000000000000000000000000000600052602260045260246000fd5b60006002820490506001821680610c1057607f821691505b602082108103610c2357610c22610bc9565b5b50919050565b7f50726f706572747920616c726561647920736f6c640000000000000000000000600082015250565b6000610c5f601583610b07565b9150610c6a82610c29565b602082019050919050565b60006020820190508181036000830152610c8e81610c52565b9050919050565b7f496e636f7272656374207061796d656e7420616d6f756e740000000000000000600082015250565b6000610ccb601883610b07565b9150610cd682610c95565b602082019050919050565b60006020820190508181036000830152610cfa81610cbe565b9050919050565b7f496e76616c69642070726f706572747920494400000000000000000000000000600082015250565b6000610d37601383610b07565b9150610d4282610d01565b602082019050919050565b60006020820190508181036000830152610d6681610d2a565b9050919050565b6000602082019050610d826000830184610b51565b92915050565b7f5072696365206d7573742062652067726561746572207468616e203000000000600082015250565b6000610dbe601c83610b07565b9150610dc982610d88565b602082019050919050565b60006020820190508181036000830152610ded81610db1565b9050919050565b60008190508160005260206000209050919050565b60006020601f8301049050919050565b600082821b905092915050565b600060088302610e567fffffffffffffffffffffffffffffffffffffffffffffffffffffffffffffffff82610e19565b610e608683610e19565b95508019841693508086168417925050509392505050565b6000819050919050565b6000610e9d610e98610e9384610756565b610e78565b610756565b9050919050565b6000819050919050565b610eb783610e82565b610ecb610ec382610ea4565b848454610e26565b825550505050565b600090565b610ee0610ed3565b610eeb818484610eae565b505050565b5b81811015610f0f57610f04600082610ed8565b600181019050610ef1565b5050565b601f821115610f5457610f2581610df4565b610f2e84610e09565b81016020851015610f3d578190505b610f51610f4985610e09565b830182610ef0565b50505b505050565b600082821c905092915050565b6000610f7760001984600802610f59565b1980831691505092915050565b6000610f908383610f66565b9150826002028217905092915050565b610fa9826107c8565b67ffffffffffffffff811115610fc257610fc1610980565b5b610fcc8254610bf8565b610fd7828285610f13565b600060209050601f83116001811461100a5760008415610ff8578287015190505b6110028582610f84565b86555061106a565b601f19841661101886610df4565b60005b828110156110405784890151825560018201915060208501945060208101905061101b565b8683101561105d5784890151611059601f891682610f66565b8355505b6001600288020188555050505b505050505050565b6000604082019050818103600083015261108c8185610b18565b905061109b602083018461094c565b9392505050565b7f4e487b7100000000000000000000000000000000000000000000000000000000600052601160045260246000fd5b60006110dc82610756565b91507fffffffffffffffffffffffffffffffffffffffffffffffffffffffffffffffff820361110e5761110d6110a2565b5b60018201905091905056fea2646970667358221220b6490b1618b749d3a574bb68237934875b132b597196c1fbbd9fd3c40a34ef5564736f6c63430008140033",
  "linkReferences": {},
  "deployedLinkReferences": {}
}